:020000041000EA
:1000000000B5324B212058609868022188439860DF
:10001000D860186158612E4B002199600221596106
:100020000121F02299502B49196001219960352056
:1000300000F044F80222904214D00621196600F024
:1000400034F8196E01211966002018661A6600F04E
:100050002CF8196E196E196E052000F02FF8012189
:100060000842F9D1002199601B49196000215960AB
:100070001A491B48016001219960EB211966A021F2
:10008000196600F012F800219960164914480160C1
:100090000121996001BC002800D000471248134993
:1000A000086003C880F30888084703B5996A0420EC
:1000B0000142FBD001200142F8D103BD02B5186610
:1000C0001866FFF7F2FF186E186E02BD00000240BE
:1000D000000000180000070000035F00212200005C
:1000E000F4000018222000A00001001008ED00E03C
:1000F00000000000000000000000000074B24E7A12
:1001000000200420F7010010C3010010C5010010F9
:10011000C1010010C1010010C1010010C101001097
:10012000C1010010C1010010C1010010C701001081
:10013000C1010010C1010010C9010010CB01001065
:10014000CD010010CD010010CD010010CD01001037
:10015000CD010010CD010010CD010010CD01001027
:10016000CD010010CD010010CD010010CD01001017
:10017000CD010010CD010010CD010010CD01001007
:10018000CD010010CD010010CD010010CD010010F7
:10019000CD010010CD010010CD010010CD010010E7
:1001A000CD010010CD010010CD010010CD010010D7
:1001B000CD010010CD010010CD010010CD010010C7
:1001C00000BE00BE00BE00BE00BE00BEEFF3058054
:1001D000103800BEF2EB8871D8020010FC0200104B
:1001E0003402001090A31AE700202249086006C8D4
:1001F00081F30888104720480068002835D10DA4F5
:100200000ECC002902D000F012F8F9E71B491C4A75
:10021000002000E001C19142FCD11A4988471A49E7
:1002200088471A49884700BEFDE701C901C29A42C2
:10023000FBD37047FC020010C0000020506B01206F
:100240008C6D0110506B012054B3012090B501104A
:10025000000004200000042090B5011000100420CC
:1002600000100420000000007047094800F014F856
:100270000047000008ED00E0000000D058B3012066
:1002800054F40120ED470020B10100201549002061
:10029000575600000000000001B40248844601BC2B
:1002A000604700BF1D4A002006005250ABB36053A8
:1002B000F886012006005250861C0302908501201A
:1002C000060052505422A29D08870120050052507A
:0802D000DE65F46890B5011031
:1002D800CC020010C0020010B402001014870120E4
:1002E800A8020010208701202C8701208897012070
:0402F80094970120B6
:1002FC00F8B5C0460448054B10B5834203D0044BF7
:10030C00002B00D0984710BD54B3012054B30120EA
:10031C000000000006480749091A8B10C90FC918BC
:10032C0010B5491003D0044B002B00D0984710BDDA
:10033C0054B3012054B301200000000010B5074C49
:10034C002378002B09D1FFF7D5FF054B002B02D0EA
:10035C00044800E000BF0123237010BDD8CC01205D
:10036C0000000000506B0120054B10B5002B03D092
:10037C000449054800E000BFFFF7CCFF10BDC046A4
:10038C0000000000DCCC0120506B012010B500F007
:10039C00CBFA002811D10F4801F0E4FE002000F048
:1003AC005BF801220168603009F00CFE041E08D1D4
:1003BC0000F0B2FE0128FBD010BD074801F0FEFE94
:1003CC00E9E70EF011F922000100044801F0F6FEF5
:1003DC00EEE7C0460C7A0120F0790120207A01204A
:1003EC0000B5322085B003F0BDFB0F2004F0ECFA11
:1003FC00322003F0B7FB144803AB02AA01A902F0A8
:10040C005BFA002803D11049104804F0B9FB039A99
:10041C000299019802F014FA322003F0A3FB01F0C8
:10042C00E7FD0EF02FFCD02301221B06196D1000E6
:10043C00114203D09A6D1A6D1042FBD104480EF094
:10044C0075FC01F04DFEFCE7801A06003C7A012099
:10045C005D010020012070470200012807D84000F0
:10046C008018C000034B801A4001C0187047002050
:10047C00FCE7C04628A5012001207047012803D8BD
:10048C00024B8001181870470020FCE708A80120D7
:10049C000123F0B5DE4657464E4645468340D022F2
:1004AC008020E0B5120685B0000103939361506182
:1004BC00C0468023DB005361C04693619061C04607
:1004CC005361C04693619061C0465361C0469361CD
:1004DC005061C0465361C04693615061C046536140
:1004EC00C04693615061C0465361C04693615061F0
:1004FC00C0465361C04693615061C0465361C046CB
:10050C0093610B78DC0900D10BE25061C046D0221C
:10051C0080201206C0005061C0469061580600D47D
:10052C00FBE1802000015061C046D02280201206E1
:10053C00C0005061C0469061980600D4E9E180206B
:10054C0000015061C046D02280201206C0005061CC
:10055C00C0469061D80600D4D7E1802000015061DC
:10056C00C046D02280201206C0005061C046906167
:10057C00180700D4C5E1802000015061C046D0228C
:10058C0080201206C0005061C0469061580700D40C
:10059C00B3E1802000015061C046D02280201206B9
:1005AC00C0005061C0469061980700D4A1E1802042
:1005BC0000015061C046D02280201206C00050615C
:1005CC00C0469061DB0700D48FE180231B0153618F
:1005DC00C046D02280231206DB005361C0469361D3
:1005EC004B78D80900D17CE1802000015061C046D5
:1005FC00D02280201206C0005061C046906158067F
:10060C0000D46AE1802000015061C046D0228020D5
:10061C001206C0005061C0469061980600D458E1A3
:10062C00802000015061C046D02280201206C000FC
:10063C005061C0469061D80600D446E1802000018C
:10064C005061C046D02280201206C0005061C046C6
:10065C009061180700D434E1802000015061C0463D
:10066C00D02280201206C0005061C046906158070D
:10067C0000D422E1802000015061C046D0228020AD
:10068C001206C0005061C0469061980700D410E17A
:10069C00802000015061C046D02280201206C0008C
:1006AC005061C0469061DB0700D4FEE080231B0143
:1006BC005361C046D02280231206DB005361C04632
:1006CC0093618B78D80900D0EBE080200001906119
:1006DC00C046D02280201206C0005061C0469061F6
:1006EC00580600D5D9E0802000019061C046D02288
:1006FC0080201206C0005061C0469061980600D55B
:10070C00C7E0802000019061C046D02280201206F4
:10071C00C0005061C0469061D80600D5B5E080207D
:10072C0000019061C046D02280201206C0005061AA
:10073C00C0469061180700D5A3E0802000019061AD
:10074C00C046D02280201206C0005061C046906185
:10075C00580700D591E0802000019061C046D0225E
:10076C0080201206C0005061C0469061980700D5E9
:10077C007FE0802000019061C046D02280201206CC
:10078C00C0005061C0469061DB0700D56DE080234E
:10079C001B019361C046D02380221B06D2005A61F4
:1007AC00C046881D8346012082469A61C0465A6124
:1007BC00C0469A6158688146C0465A61C0469A61E3
:1007CC0058688046C0465A61C0469A61586884464B
:1007DC00C0465A61C0469A615F68C0465A61C046BD
:1007EC009A615E68C0465A61C0469A615D6801951F
:1007FC00C0465A61C0469A615C680294C0465A6110
:10080C00C0464C46240BE401A14654469A615868F4
:10081C004025000B20404C4620434446A4092C4064
:10082C0020436446203DE4092C40204310243F0A19
:10083C002740760A083C2640384330430426019D65
:10084C00029CAD0A354028430225E40A2C40204383
:10085C00087001315945A9D1039A5A6105B03CBCC5
:10086C0090469946A246AB46F0BD80231B015361CE
:10087C0090E78020000150617EE7802000015061EC
:10088C006CE78020000150615AE780200001506124
:10089C0048E780200001506136E78020000150615C
:1008AC0024E780200001506112E780231B01936133
:1008BC00FFE6802000019061EDE680200001906150
:1008CC00DBE6802000019061C9E680200001906188
:1008DC00B7E6802000019061A5E6802000019061C0
:1008EC0093E680200001906181E680231B019361D7
:1008FC006EE68020000190615CE680200001906132
:10090C004AE680200001906138E680200001906169
:10091C0026E680200001906114E6802000019061A1
:10092C0002E69061F2E5C046F0B5C64600B515206A
:10093C0082B002F033FA162002F030FA0B2002F0EB
:10094C002DFA0C2002F02AFA0A2002F027FAD02401
:10095C00802324069B03636298468027802680238D
:10096C003601FF035B01802567626662A362434622
:10097C00ED0065620A2063616761A661A56103F001
:10098C00F1F84346A361A661C0466561C046A56106
:10099C006661C0466561C046A5616661C046656119
:1009AC00C046A561A661C0466561C046A561A66149
:1009BC00C0466561C046A5616661C0466561C046BA
:1009CC00A5616661C0466561C046A561A661C04669
:1009DC006561C046A5616361A3616661C0466561DE
:1009EC00C046A561A661C0466561C046A561A66109
:1009FC00C0466561C046A5616661C0466561C0467A
:100A0C00A5616661C0466561C046A561A661C04628
:100A1C006561C046A561A661C0466561C046A56119
:100A2C006661C0466561C0460A20A561636103F03A
:100A3C0099F8A761A661C0466561C046A56166616B
:100A4C00C0466561C046A5616661C0466561C04629
:100A5C00A561A661C0466561C046A561A661C04698
:100A6C006561C046A5616661C0466561C046A56109
:100A7C006661C0466561C046A561A661C0466561F8
:100A8C00C046A5616761A7616661C0466561C046E5
:100A9C00A561A661C0466561C046A561A661C04658
:100AAC006561C046A5616661C0466561C046A561C9
:100ABC006661C0466561C046A561A661C0466561B8
:100ACC00C046A561A661C0466561C046A561666168
:100ADC00C0466561C0460A20A561676103F042F813
:100AEC0015206946FFF7D4FC6B465B7801205D2B23
:100AFC0003D002B004BC9046F0BD15306946FFF738
:100B0C00C7FC6B4658785D38431E98414000F0E7AF
:100B1C00F0B55746DE464E464546E0B585B09246A2
:100B2C0001910293002A00D1F3E002230422AD4D7F
:100B3C002B7080231B04984200D2E5E0AA4B9C4604
:100B4C008023DB03190060440393030C6B70E87083
:100B5C00030A4020AB708026D023802483462038A3
:100B6C008146103880461B06F60008389961844689
:100B7C003100AA1824013CE09C61C0465961C04672
:100B8C005F469961074245D19C61C0465961C04698
:100B9C004F46996107423BD19C61C0465961C046A2
:100BAC0047469961074231D19C61C0465961C046A4
:100BBC0067469961074227D19C61C0465961C0467E
:100BCC00996147071ED49C61C0465961C046996122
:100BDC00870715D49C61C0465961C0469961C0070E
:100BEC000CD49C61C0465E61C04601359E61954245
:100BFC0012D02878C709BFD05C61BEE75C61F1E711
:100C0C005C61E8E75C61DFE75C61D6E75C61CCE7DF
:100C1C005C61C2E75C61B8E75346002B00D07BE017
:100C2C00019B002B65D0029A012191464B449B46B7
:100C3C008022D0238A4659464C461B06D20002918C
:100C4C00C0465A61C0469A6159688B46C0465A6183
:100C5C00C0469A6159688946C0465A61C0469A6135
:100C6C0059688846C0465A61C0469A6159688C4694
:100C7C00C0465A61C0469A615F68C0465A61C04618
:100C8C009A615E68C0465A61C0469A615868019084
:100C9C00C0465A61C0465D462D0BED01AB4655462C
:100CAC009A6159684020090B29405D4629434D46FD
:100CBC00AD0905404046C0092943050020200540E8
:100CCC006046000A294305001020054008207F0AD1
:100CDC000740294339430427B60A3E4031430226D4
:100CEC000198C00A30400143217002990134A1429D
:100CFC00A6D1D023039A1B065A6105B03CBC904682
:100D0C009946A246AB46F0BD80239B031900039382
:100D1C001BE70B2305220AE7019A029B9146994493
:100D2C00002AE6D040208025D0228024824620381C
:100D3C008046ED001038290084460827120624014D
:100D4C003CE09461C0465161C046564691610642F2
:100D5C0045D19461C0465161C046464691610642F8
:100D6C003BD19461C0465161C046664691610642D2
:100D7C0031D19461C0465161C0469161074228D17E
:100D8C009461C0465161C046916146071FD494617D
:100D9C00C0465161C0469161860716D49461C04625
:100DAC005161C0469161C0070DD49461C046556134
:100DBC00C046013395614B4500D19AE71878C609B6
:100DCC00BFD05461BEE75461F0E75461E7E754616A
:100DDC00DEE75461D5E75461CCE75461C2E7546156
:100DEC00B8E7C046D8EF0120000080FFF0B55746A9
:100DFC004E46DE464546934600230122E0B583B0BD
:100E0C000191474944050D684E6852197341E40E2F
:100E1C00444D0A604B60E3009A46A946424AEB589F
:100E2C006700E4010090D1441419D90702D543405E
:100E3C00DB0A61D07C1CA300994653460121EB18B8
:100E4C005B68A4018846A9441419194227D01900DB
:100E5C0000984140C90A60D041469B089943CC197F
:100E6C00A300E8588846A401E91889461419830799
:100E7C003AD43F23009E00229E43402123003000A1
:100E8C00FFF746FE01234744BF003343EB51534663
:100E9C00EB185F6804239F4343469B000CE03F2301
:100EAC00009E00229E434021230030003700FFF7B4
:100EBC002FFE43461F4304233F201F43009B5A46EB
:100ECC0018400199554420186F6004F0A5FD4A465E
:100EDC000223126813434A46136003B03CBC90468D
:100EEC009946A246AB46F0BD3F23012298434021D0
:100EFC002300FFF70DFEBCE70023012000210B4A65
:100F0C009B001668576880197941106051605246F1
:100F1C00AA18576804229743CEE70123EDE7C04691
:100F2C0058B301209CEE01208CD70120D0CC01209D
:100F3C00F0B5002357464E46DE4645469346012201
:100F4C008A464449E0B50E684F6892197B414505C5
:100F5C00ED0E0A604B606B0099463F4BEC01ED00C7
:100F6C003E4A5B5983B001901419D90702D543400E
:100F7C00DB0A5BD04B4601215C1C374BA4015B198F
:100F8C005B6888461419194228D019000198414011
:100F9C00C90A5CD041469B0899430B004B449C0109
:100FAC0014192D4A9B00D0588846830736D43F230A
:100FBC00019F00229F43402123003800FFF7A8FD2A
:100FCC004B460122244943449B003A43CA504B19D7
:100FDC0058680423984343469B000BE03F23019F32
:100FEC0000229F43380023004021FFF791FD40462B
:100FFC0004233843184A3F2194461843019B654407
:10100C00194068605A465046611804F005FD03B05B
:10101C003CBC90469946A246AB46F0BD3F2301220C
:10102C00984340212300FFF773FDC0E70023012004
:10103C0000210B4A9B001668576880197941106093
:10104C005160054A5219506804229043D2E701239B
:10105C00EDE7C04658B301209CEE01208CD701204F
:10106C00D0CC0120F0B5CE46474680B5274C8846FB
:10107C00A54401000122684609F088F8F7231842BC
:10108C0022D1049C059D002D3BD0802301275B01C0
:10109C0099461F4E7F420EE08021404698AB0122BC
:1010AC004901FFF735FD80235B019C46A4197D4166
:1010BC00E044002D0ED0802200236846520198A9EE
:1010CC0009F054FF0028E7D0124B9D440CBC90460D
:1010DC009946F0BD4C45EED223002B430DD0002396
:1010EC002200684698A909F041FF0028ECD10122A2
:1010FC002100404698ABFFF70BFD68460AF0FEF95D
:10110C00E2E780235B019C42BFD2E5E79CEDFFFF49
:10111C0000F0FFFF64120000F0B54E46DE46454677
:10112C005746E0B5DB4B002199461B68DA4893B073
:10113C009846FFF797FFD94E04004644002800D08C
:10114C0071E3D74801F00EF8C023D64CDB00371BF7
:10115C00E5182300E019012201340121FFF7D8FC26
:10116C00AC42F6D1D04833BA042211A940441193B1
:10117C00FFF73CFECD4B9B4600235A469362002E54
:10118C0001D0CB4E46445B46BC225946DE6203235B
:10119C00895800240B4359468B5080228023120619
:1011AC00CA50C44B1B680193002302930394019B08
:1011BC00002B00D12DE3C04B1B68002B00D0D3E2D9
:1011CC0080230024DB000C930D940F930023002448
:1011DC000693079401235B42DC1708930994089843
:1011EC0009990122002312184B41069807998B424A
:1011FC000BD800D1CDE2089B099C1A00013200D01B
:10120C0066E22300013300D062E2AC4B0B93A94B96
:10121C001B680193002B00D179E25B46883303CB2A
:10122C000B9B1B680193019ADB1703F0A3FD029B38
:10123C00C01A0023049005930499059A029B039C01
:10124C005B1854419022029303945B469B58C01840
:10125C00834200D943E25A4694239021D3585A46EC
:10126C0050509C2259468A589A4200D346E2982301
:10127C00CB581A431BD1BC235A46D058AC225B46E0
:10128C0080215C469B588B43A350430700D4BBE2A0
:10129C008B4B1B68002B00D03DE30C9C0D9D5946DD
:1012AC0088310A684B6812196B410CC193E0BC235E
:1012BC0059460422C958AC2091430A0059465C4651
:1012CC00CA5009583C3B19432150E1588A468821A1
:1012DC00675820316158194200D04BE20F9B56469B
:1012EC009C46BC4463460A9380231B06F0184B466D
:1012FC001B680137984200D39DE203239A460340B2
:10130C0001935346034200D09CE2042211A9FFF73B
:10131C000FFE1F221300119CE1090B4098467F23FE
:10132C002340372B00D92DE1022B11D9033B342B51
:10133C000ED8644A9B00D3589F466404640F012C5A
:10134C0000D1E0E2022C00D183E2002C00D187E234
:10135C00BA46B046BC235A46D258BA3BB821584676
:10136C00435043465846B421435084238821C358E4
:10137C004158B0205C46454625501801C0248023B6
:10138C0064010340D002204003435C468420235078
:10139C00A423E358984603231A43B933E2500BE0D5
:1013AC0098235A46D55004360A9BBB429CD18823BD
:1013BC005A46BA46B046D158514505D98C225B469F
:1013CC0059469B5801338B5088235A465146D1506D
:1013DC004146083BD150069B079C0C990D9A5B1813
:1013EC00544106930794FAE65A462303DB0E9B00FE
:1013FC00D258230D002C01DA33490B43D318802229
:10140C00120698184A461268033A904200D2A2E19A
:10141C00F022802112069A1889048A4200D3C2E174
:10142C002A4A934200D17FE2294A934200D041E3F9
:10143C005B4690229B580436019304E0210B090370
:10144C008B19019304364346002BADD05A460199B3
:10145C009B00D150A8E7220D002C01DA1A4B1A433D
:10146C001F255946E30B2B409B00C858A30600D4FC
:10147C0050E11540AD004A59A30100D48DE164043C
:10148C00144B640FA4001B599F46240B2303019398
:10149C000436D8E74CA80120747A012000FAFFFF2B
:1014AC009C7A0120847F01203CFBFFFFE0EF0120B0
:1014BC0000FAFF7F0CE8012094EE012050A80120D7
:1014CC0048A80120F87A012000F0FFFFFCBF0011B2
:1014DC00F8BF0011CC7B01201F225946E30B1340AF
:1014EC009B00CB58802109065D18494609680339D1
:1014FC008D4200D273E15946BC22BA468A58B04696
:10150C000721B8205C4621502CE71F22594658462B
:10151C00E30B13409B00C958230D1A4092008558C9
:10152C00FE22120113404246134380221201134241
:10153C0001D0D24A13438022CB18120698184A467F
:10154C001268033A904200D2F7E6F022802112068C
:10155C009A1889048A42CED2C94A934200D1DEE15C
:10156C00C84A934200D11BE7C74A934200D193E08B
:10157C0080225205934200D015E7E8B200F0BCFD82
:10158C00043611E76F2B6ED034D9732B00D0DFE605
:10159C000721230B19400E915146250D194200D1FC
:1015AC00BEE0E40B2240930092465A46D458D12315
:1015BC009B009D420CD8443B9D4200D227E3B34B89
:1015CC00EB18442B00D922E3B14A9B00D3589F4619
:1015DC00C0231B019D4200D1ECE0AE4B9D4201D0DB
:1015EC0000F09CFC0E9B072B00D9B7E3AA4A9B008A
:1015FC00D3589F46632B12D0672B00D0A8E6230D3F
:10160C00002C01DA9D4A1343321D01925A462403E1
:10161C00E40EA40016599E1901239E4313E71E23C2
:10162C001940FC238020220DDB00134019430001DC
:10163C00230103401943E30F1B031943002B01D073
:10164C00964B19431F235D46E00B1840640413406E
:10165C00321F5118640F924AA400125980009B004B
:10166C002858EB58974680228E48E30A210D5203E6
:10167C00014013400B43FF21090321400B43802100
:10168C00640A09010C401C43144201D0864B1C43D4
:10169C00331D01933619D6E63200802359460432A5
:1016AC00CA50824B9D4201D100F015FC01D900F0CB
:1016BC001CFC032D01D100F0FBFB05D8002D00D143
:1016CC0089E6012D00D1E3E5794800F04BFD0220BD
:1016DC0013B03CBC90469946A246AB46F0BD942252
:1016EC005B4659469B5801338B505A4690215050BB
:1016FC009C2259468A589A4200D2B8E59A4200D0A8
:10170C00B9E59823CB58984200D8B4E5B1E502F07E
:10171C00DDFA85E5630467495B0F9B00CB589F4658
:10172C000E9B002B00D013E60623FF339D4200D105
:10173C00A7E3FF232B40022B00D1FBE0BA46B046B7
:10174C00002D00D1F4E1012D00D003E6BC235A4654
:10175C00D258B93B02E66404640F052C00D9F7E5B6
:10176C00554BA4001B599F46012300240F930C9347
:10177C000D942BE58423E358190700D4AEE5B8216A
:10178C004E48D0466050002004396050BA463900AB
:10179C00EFE5824200D938E52DE5630448495B0F3B
:1017AC009B00CB589F465946BC22BA468A58B04635
:1017BC000521A6E601970E9B072B0ED8414A9B00EC
:1017CC00D3589F465346019A53409A465346042297
:1017DC00280011A91193FFF709FB043633E6230DFA
:1017EC001A405B4692009B582800042211A99A4685
:1017FC00FFF79EFB119BE40E01931C2C00D9A7E56F
:10180C00314BA4001B599F4663589A468823E758CE
:10181C0064E502F05BFA2D4B1A68D31703F0AAFAB1
:10182C0002900391C7E40CF0DFFE2200010028486F
:10183C0000F0C4FC85E4BC235A46BA46D258B046E4
:10184C00BB3B8BE55A46B933D258BA46B046002357
:10185C0084E5042211A911950436FFF7C7FAA3E514
:10186C0010AB012211A91D710436FFF7BFFA9BE5DD
:10187C00984200D097E50E1D96E5C04600F0FFFF9C
:10188C0004400011004000110000101100FDFFFF8A
:10189C00EC7B0120110F0000007D012000E0FFFF18
:1018AC00207D0120FE0700000000E0FF55550000E0
:1018BC00E47A0120407D0120607D0120070000803A
:1018CC00787D0120987D0120B87D012050A8012051
:1018DC007C7A0120984200D165E50E1D64E59842A2
:1018EC0000DB60E50E1D5FE5984200DA5BE50E1D3E
:1018FC005AE5984200D356E50E1D55E5984200D2A4
:10190C0051E50E1D50E510AB022211A99D80043645
:10191C00FFF76CFA48E5012002F024F9BDE49C23A2
:10192C005A460436D5503FE594235A46D3580436CC
:10193C00019388E5BC205A4684255B461158C02685
:10194C0008225B5976011C092240CC023440224308
:10195C00802422435C4662510322DB0A13409143EC
:10196C000B432350B023E6581EE5012211A9FFF7C3
:10197C00DFFA10AB1B7904365BB2019363E50222EC
:10198C0011A9FFF7D5FA10AB04229B5E0436019324
:10199C0059E5042211A9FFF7CBFA119B04360193E8
:1019AC0051E5012211A9FFF7C3FA10AB1B790436DC
:1019BC00019348E5022211A9FFF7BAFA10AB9B88F4
:1019CC00043601933FE55040019004363BE501217C
:1019DC00904200DB00210191043634E590428041B5
:1019EC004342019304362EE51F231A40630000D4B2
:1019FC00ABE010410436019025E51043019004360C
:101A0C0021E50240019204361DE51F231A40904047
:101A1C000436019017E5D74B01935446019B1C43A8
:101A2C00D1239B009D4200D9D7E6D0239B009D4239
:101A3C002CD3D14B9C466544032D74D8CF4BAD00B1
:101A4C005B599F46B8235A460436D450FBE4B02366
:101A5C005A460436D450F6E4B4235A460436D450CD
:101A6C00F1E4AC235A460436D450ECE4C14B019358
:101A7C00019BA3431C00D3E7BE4B01935346019C2F
:101A8C009C43CDE7BB4B01935446C9E73C3B9D427D
:101A9C0044D0BB4B9D4204D1A4235A460436D450A7
:101AAC00D1E4053B9D4200D091E184235A46043693
:101ABC00D450C8E4B34A934200D193E1802252053A
:101ACC00934200D089E6B0480268EFF3108172B6F9
:101ADC001368002BFCD0BFF35F8F02894389D31AA4
:101AEC0002D5C28901329B180268BFF35F8F0024B4
:101AFC00146081F31088002B00D16EE611A902F05E
:101B0C0045FC002800D1FFE110AB197963E76300B5
:101B1C0000D5D8E083180193043694E4A8235A46E0
:101B2C000436D4508FE4A0235A460436D4508AE4A9
:101B3C00BC235A46D258B93B134059424B4102215F
:101B4C005B428B430B33FFF709FCD040043601900A
:101B5C0079E4AC235A46D35801930E9B072B00D93A
:101B6C007FE78A4A9B00D3589F46B4235A46D358E2
:101B7C0001930E9B072B00D96EE7854A9B00D35827
:101B8C009F46B8235A46D35801930E9B072B00D976
:101B9C0058E7804A9B00D3589F46B0235A46D358E7
:101BAC0001930E9B072B00D951E77B4A9B00D3581E
:101BBC009F46A0235A46D35801930E9B072BB2D8AD
:101BCC00764A9B00D3589F46A4235A46D358019378
:101BDC000E9B072B00D95FE7714A9B00D3589F4699
:101BEC00A8235A46D35801930E9B072B96D86D4ABF
:101BFC009B00D3589F4684235A46D35801930E9B7F
:101C0C00072B00D951E7684A9B00D3589F46A02365
:101C1C005B009D4200D106E10E9B023B052B00D9D7
:101C2C0003E7624A9B00D3589F460E9B023B052B51
:101C3C0000D9CAE05E4A9B00D3589F460023C117C7
:101C4C0003F02CFE04360191FFF7FDFB002A00D1B6
:101C5C00B5E0110003F050F804360190FFF7F3FBE8
:101C6C00002A00D181E080231B06984200D102E1BA
:101C7C00110003F019F804360191FFF7E4FB002A78
:101C8C0073D0110003F038F804360191FFF7DBFB39
:101C9C00C117D31703F002FE04360191FFF7D3FBF3
:101CAC000023002103F0FAFD95E6002A00D186E01E
:101CBC0080231B06984256D0110002F0F5FF043623
:101CCC000190FFF7C0FB831A01930436FFF7BBFBAF
:101CDC00284B0193A2E65346019A13409A4675E5A8
:101CEC00019B9A4500D371E59A466FE5019A130062
:101CFC005245F9DD53469A4668E5019A1300524560
:101D0C00F8DB9A4662E5019B9A4500D85EE5EBE765
:101D1C00BC22594607238958ED000B401D435B46F6
:101D2C0004369D50FFF78FFBBC235A46D258EB006C
:101D3C00D208DB08D11A0800411E884101909A4252
:101D4C0000D143E50436FFF77EFB5346019A13435B
:101D5C009A463BE5019B9C46E24437E5054B04362D
:101D6C000193FFF770FB531CA6D104360190FFF7CB
:101D7C006AFBC046FFF00FFFBFFCFFFF2C7E01206B
:101D8C000503000005000010C0F001203C7E01207E
:101D9C005C7E01207C7E01209C7E0120BC7E01208B
:101DAC00DC7E0120FC7E01201C7F01203C7F012079
:101DBC00547F0120424304360192FFF744FB012378
:101DCC005B4204360193FFF73EFB604B01933A23D1
:101DDC00FF339D4200D000E5E0B200F08DF90436EF
:101DEC00FFF731FB5A480368EFF3108172B61A689B
:101DFC00002AFCD0BFF35F8F038942899B1A02D55E
:101E0C00C28901329B180268BFF35F8F00201060FB
:101E1C0081F3108819004B1E9941603001430191E8
:101E2C000436FFF710FB4A480368EFF3108172B6D3
:101E3C001A68002AFCD0BFF35F8F02894389D31A3A
:101E4C00019305D59C46C2890132944463460193A3
:101E5C000368BFF35F8F00221A6081F31088019B27
:101E6C00002B21D011A902F091FA00285FD010AB01
:101E7C00197901919FE4531C00D0F9E60436FFF761
:101E8C00E2FA842259468958FD3B0B4359468B5044
:101E9C000423383289580B4359468B503200802327
:101EAC000432CA50FFF7F4F901235B42019382E438
:101EBC000C990D9A069B079C5B185441002200213B
:101ECC00089109921A0006930794224301D1FFF757
:101EDC009EF9FFF7FDFB8823CA5804331D48C958E7
:101EEC0000F040F90020FFF7F3FB1B4B9D4201D0A3
:101EFC00FFF7EAFB8823CA5804331848C95800F086
:101F0C0031F90120FFF7E4FB0121494263E50F4B56
:101F1C000193B3E50D4B544601937FE50E9B023BB9
:101F2C00052B00D959E40E4A9B00D3589F4601213A
:101F3C00494201913FE4054B5446019370E5034B34
:101F4C00019395E5014B019368E5C04601114040B2
:101F5C00C0F00120CC7A012077770000B87A0120FC
:101F6C006C7F012000487047B48501200048704701
:101F7C00C885012070B5002825D0032830D8194B0E
:101F8C008000C658300010F05BFDC0B2041C1F2846
:101F9C0014D8E4B2002820D00023134DAA1CF15C05
:101FAC0001331180D9B202328C42F8D8C0230134EB
:101FBC0064009B001C4328002C8070BD1F24E4B2DD
:101FCC000028E9D109E0C124074D064B022219680B
:101FDC00A81C03F021FDA400EDE7044C024DEAE738
:101FEC000020EAE754A8012090D60120020300004B
:101FFC0010B50EF09FF900F0F7F800F08BFF0F22F0
:10200C0003000121054802F077F900F083FF0F224D
:10201C0003000121024802F06FF910BDA0F001206D
:10202C00C0F0012070B500252A4C82B02368EFF374
:10203C00108272B619680029FCD0BFF35F8F238918
:10204C0061895B1A02D5E18901315B182168BFF304
:10205C005F8F0D6082F31088002B14D06B4620002C
:10206C00991D02F005FA00200DF094FE0028DDD039
:10207C006B466A469B790020D3716B460122D91DB1
:10208C000DF030FFD2E700200DF084FE002806D1C1
:10209C0000200DF07FFE002818D102B070BD00208A
:1020AC000DF092FE0028F3D00B4C0F2221000020E3
:1020BC000DF09AFE0028EBD0084E251821003000B8
:1020CC00013402F02BF9AC42F8D1E1E700200DF01D
:1020DC00CBFEE2E7A0F00120B0F00120C0F001201F
:1020EC00012010B5002140420DF064F8FFF79AFF73
:1020FC0000F0F8FA10BDC04610B582B06B46DC1D7E
:10210C00D8712100044802F009F92100034802F0BB
:10211C0075F902B010BDC046A0F0012038F10120C5
:10212C00F0B583B0040010F08BFCFF231D000540BC
:10213C00034211D0094F0A4E65196A462378D11D06
:10214C003800D37102F0EAF86B463000D91D013427
:10215C0002F054F9A542F0D103B0F0BDA0F001207B
:10216C0038F101200FB4F0B583B0114C08AA02CAA3
:10217C002000019210F0B6FD200010F061FC002848
:10218C0011D00C4F0C4E25186A462378D11C380000
:10219C00D37002F0C3F86B463000D91C013402F046
:1021AC002DF9A542F0D103B0F0BC08BC04B018471F
:1021BC00D0F00120A0F0012038F101200FB410B5AF
:1021CC0082B004AA064C02CA2000019210F08AFDCB
:1021DC000448FFF7A5FF2000FFF7A2FFFEE7C0466B
:1021EC00D0F00120148601200F2300B583B0052206
:1021FC00062100930420013B0EF0A6FB16480EF0BE
:10220C00BBFB02200EF07CFD01200EF083FC0FF0D6
:10221C0057FC032102200FF07BFE00F07BFE0F2207
:10222C00030001210D4802F067F80EF047FF0C4B3C
:10223C00196802F061FD0B4B18600EF045FF0A4B5C
:10224C00196802F059FD094B013818600EF042FF75
:10225C000FF048FC03B000BD0000044038F1012031
:10226C0068A8012048F1012064A8012034F1012064
:10227C00F0B5020085B00A2840D00D283AD00828C5
:10228C000FD1254A1368002B07D1244B1B68013B47
:10229C001360234A1368002B01D0013B136005B077
:1022AC00F0BD1F4D1F4E296830681B4C41431E4822
:1022BC00276800681D4B784301271B8802970197FC
:1022CC001B4F09B23F8800B200970FF02BF9134A4D
:1022DC0023681268013323609342E0D315492A68BE
:1022EC000968531C2B608B4205D930682A600FF0AB
:1022FC0035FC00E0084C00232360D0E7084B0D4868
:10230C00196800684A1C1A608242C8D91960054BCA
:10231C0018680FF023FCC2E7ACEF012048F1012054
:10232C00B0EF012064A8012068A801206CA801204E
:10233C00C2EF012034F10120F0B5D6464F46464697
:10234C00C0B5140082B04A2825D04B280AD04828A2
:10235C0000D17CE06D2854D002B01CBC904699464C
:10236C00A246F0BD002AF7D14A4B4B4F18684B4B95
:10237C001D684B4B45431E683B685E430EF09EFE4A
:10238C0036B20022BB5E421B310012B228B200945E
:10239C000FF004F8E0E7002A05D00B68022BDBD124
:1023AC000EF098FED8E73B4B3B4F18683B4B3E6812
:1023BC001D683B4B454398461B685E430EF07EFE02
:1023CC0036B20022BB5E421B310012B228B200941E
:1023DC000EF0E4FF43461968324B1B689942BBD29E
:1023EC003D6801314D430EF069FE06000EF06CFEA7
:1023FC00431B1BB2002032B229B200940EF0CEFF68
:10240C00AAE7002A34D0284B284E98461B88940003
:10241C009C4600239A46264B002099461F0035887F
:10242C000C1905E001205200D55B04318C4226D0FA
:10243C000B681A001E3A072AF4D9283B072BF4D84C
:10244C004A465B009B5A9C4601239A46EDE7002ABC
:10245C0004D1104B1A60124B1A607DE7022A00D08F
:10246C007AE70A680B4B496819600D4B1A6073E7E1
:10247C0001220E4B52421A800B4B1C806CE7002839
:10248C0000D035805346002B00D165E743466246A9
:10249C001A8061E7ACEF012064A8012068A8012034
:1024AC00B0EF012034F10120C2EF01206CA8012013
:1024BC0024860120F0B5C64600B59AB0040010F091
:1024CC00BFFA2318013B1F7801280BD801AB00245D
:1024DC009846220041463800FFF72EFF1AB004BC84
:1024EC009046F0BD0D4E2000310010F0DDFA0028B2
:1024FC00ECD001AB98461D00012408E008C5310062
:10250C00002010F0D1FA631C0028E2D01C000378E4
:10251C00002BF3D00FF018FD01C5F0E71C8601204D
:10252C00F0B5DE4657464E464546E0B5324C9BB0BC
:10253C002268EFF3108172B61368002BFCD0BFF346
:10254C005F8F238962899B1A02D5E28901329B181D
:10255C002268BFF35F8F0020106081F31088002B7E
:10256C0006D11BB03CBC90469946A246AB46F0BD8A
:10257C00200001A901F07CFF6B4618791B2802D0C2
:10258C00FFF776FEEDE7200001A901F071FF6B4625
:10259C001B795B2BE5D16B46DE1C184B002799464B
:1025AC0003239B46013398463100200001F09AFF2B
:1025BC004A4635786B1C9A46D35C5A46CA441A4232
:1025CC0013D0424641460137F5551A401942EBD11A
:1025DC003B2DE9D06B46200004333100DA5501F075
:1025EC0047FF01A8FFF766FFBBE73100200001F0B1
:1025FC003FFF53461B78E4E738F10120149F01207C
:10260C00F0B5574645464E46DE46E0B5324F334DA3
:10261C007B1C9846AA46B94683B00FF039FC0028BB
:10262C0024D00FF049FC6B46C0B2991D08700B28E2
:10263C0037D022D8082849D00A2843D107236B4425
:10264C009B4642235A46254E234C137021003000E2
:10265C0001F064FE611C300001F060FE5946300050
:10266C0001F05CFE0FF014FC0028DAD103B03CBC86
:10267C0090469946A246AB46F0BD152822D16B4632
:10268C00DE1D4323154C49462000337001F046FEF5
:10269C002000134901F042FE3100200001F03EFE03
:1026AC00BBE76B46DC1D412339002800237001F089
:1026BC0035FE4146280001F031FE2100280001F0D2
:1026CC002DFEAAE7504601F029FEA6E707236B442E
:1026DC009B464423B6E7C04620860120C0F001206B
:1026EC0021860120F0B5DE4657464E464546E0B5FC
:1026FC0085B0FFF715FFFFF783FF01F0E7FA00291C
:10270C0046D0FA220023920002F034FB0400434D21
:10271C002B689633A34234D2414B424F99461B68E7
:10272C0038689C46404B9A46604537D03F4B98469C
:10273C003F4E3378002B54D043461A683D4B0293DE
:10274C003D4B9B465946029B09681B8801325143FD
:10275C00421C5A435843394B09B2009312B20B0036
:10276C0000B20EF075FD01223378534033700FF038
:10277C00D5F94B463A682C601A60424653461268AB
:10278C001A6005B03CBC90469946A246AB46F0BDDB
:10279C00FA21890002F0B0FA0400B8E71A68234B5A
:1027AC0098461B689342C3D1224B214E0293224B75
:1027BC009B4633780393002BC4D1029901320988CC
:1027CC008C465946634609685143421C5A43584348
:1027DC00039B09B2009312B20B0000B20EF038FD4D
:1027EC00C1E7144A1088029252461268511C124AD0
:1027FC00934612680093514362460132424312B22F
:10280C0003926246504309B20B00039A00B20EF0D9
:10281C001FFD434638681A68CBE7C04678EE0120A6
:10282C0080EE0120ACEF012084EE0120B0EF0120FE
:10283C00CCEF012068A8012064A80120FFFF000054
:10284C00F0B583B005000E00140000F0C5FA0028A6
:10285C0001D003B0F0BD154F01223B0001210097C0
:10286C00053001F06FFE33002A000094012110485E
:10287C0002F056F821002800714302F03DFA0400E2
:10288C000C4B002200930221042001F05BFE23007C
:10289C00002201210094052001F054FE3B0002228D
:1028AC0000210097062001F04DFED2E7006CDC02FF
:1028BC0000800240001BB700F0B5DE4657464E467E
:1028CC004546E0B5070083B004209B460091019279
:1028DC0002F020F8FA21890002F00EFA3223824627
:1028EC00FF33994686005644B6014C4B4C4AF318BC
:1028FC00072493420BD901235B429C465346E14487
:10290C00F61A4B46002BF0D100205AE0012421008E
:10291C003000614302F0F0F9874259D0631E9846AB
:10292C00012CE8D01D0065433000290002F0E4F9C9
:10293C00874251D0A31E9846022CE7D02D1B2900AC
:10294C00300002F0D9F9874249D0E31E9846032C97
:10295C004BD02D1B2900300002F0CEF9874246D017
:10296C00231F9846042C48D02D1B2900300002F060
:10297C00C3F9874243D0631F9846052C45D02D1BC5
:10298C002900300002F0B8F9874240D0062C42D022
:10299C003000E91F02F0B0F906248742B7D10029B4
:1029AC00B5D101230724984673019B1B9B009E19EC
:1029BC00009BF6001E60019B42461C605B4601209A
:1029CC001A6003B03CBC90469946A246AB46F0BD9B
:1029DC000029A3D1A046E7E70029ABD1E4E7002901
:1029EC00E2D0E31E9846032CB3D102248FE70029D2
:1029FC00DAD0231F9846042CB6D1032487E700298C
:102A0C00D2D0631F9846052CB9D104247FE7002946
:102A1C00CAD0062CBCD1052479E7C046508EF4FFF1
:102A2C0050F80C00D0231B061B68F0B59A004546E5
:102A3C0090464146894ADE465258574693465A1E9E
:102A4C00934130224E465B421A40854BE0B59C4682
:102A5C00844B08269A4683B0624400923500083DA8
:102A6C00EA081300009908339B005C58002C23D013
:102A7C005B46002B2AD001230F27994639002140B1
:102A8C00274213D04B4652464046AB4012581A428E
:102A9C000CD1072208002A40920090400200EB085B
:102AAC0071483C339B001A502800D8472409013543
:102ABC00002C01D0B542E1D30836282ECED103B07C
:102ACC003CBC90469946A246AB46F0BD0F2319007C
:102ADC002140234207D047460E3BAB406148C059CA
:102AEC00184200D196E02309F11F002BE4D00F22ED
:102AFC00100018401A420FD0012345468B40594A0A
:102B0C0052591A4208D10722CB081140890088403B
:102B1C00554A3C339B009850230AB11F002BCBD055
:102B2C000F22100018401A420FD0012345468B404B
:102B3C004C4A52591A4208D10722CB08114089003D
:102B4C008840494A3C339B009850230B711F002B43
:102B5C00B2D00F22100018401A4239D1230C311F69
:102B6C00002BA9D00F22100018401A4241D1230D7E
:102B7C00F11E002BA0D00F22100018401A4252D187
:102B8C00230EB11E002B97D00F22100018401A42B2
:102B9C0006D0012345468B40324A52591A4253D033
:102BAC00240F721E002C00D186E70123404693406F
:102BBC002C4909580191194200D07DE70721D3080F
:102BCC000A40920094403C33274A9B009C5073E788
:102BDC00012345468B40234A52591A42BED1072243
:102BEC00CB081140890088401F4A3C339B00985009
:102BFC00B4E7012345468B401A4A52591A42B6D1C2
:102C0C000722CB08114089008840174A3C339B00AF
:102C1C009850ACE707231D40AD00A940124B3C3245
:102C2C009200D1505FE7012345468B400D4A525923
:102C3C001A42A5D10722CB081140890088400A4AC4
:102C4C003C339B0098509BE70722CB08114089002E
:102C5C008840054A3C339B009850A1E78CE7012043
:102C6C000041014088EE012000400140094A8300E8
:102C7C0094464022634410B51C68C0006240C024D6
:102C8C0014408022520113431C60034B9C46604449
:102C9C00416010BD04C00140004001400A4B80005F
:102CAC009C4604236044002901D00C230821002AEF
:102CBC0000D10B00026853400C221A4080235B01A8
:102CCC00184302607047C04604C00140064B8000A8
:102CDC009C46604403680901594030231940802305
:102CEC005B0118430160704704C00140F8B51E0039
:102CFC00D0231B061C680700631E9C4130236442D2
:102D0C001C40224B15009C46C30807201A00384073
:102D1C00800081403C321E48644492009B0011505C
:102D2C00E418002D11D080239B011C43D02321607B
:102D3C001B061C68174FA4003B59002B11D0002E0A
:102D4C001ED03E51002D16D1F8BDC0239B011C4353
:102D5C00D02321601B061C680E4FA4003B59002B8E
:102D6C00EDD1002EEED000220D200B493E5100F08B
:102D7C003DF9002DE8D001210D2000F0E7F8E3E744
:102D8C000D20054900F012FADBE7C0460041014076
:102D9C00004001408CE70120F52700200123D022C0
:102DAC008340120693629361094A83009446402241
:102DBC0063441968C0004A40C0211140802252016E
:102DCC0013431960034B9C460523604443607047D2
:102DDC0004C0014000400140024B18688007C00F3E
:102DEC007047C04600C00640EFF3108072B6034A2D
:102DFC001368002BFCD0BFF35F8F70472C0100D001
:102E0C00BFF35F8F0022024B1A6080F3108870476B
:102E1C002C0100D0F8B5EFF3108772B60E4E336864
:102E2C00002BFCD0BFF35F8FCB08C4180725A4463A
:102E3C00C45C01230D40AB4018002040234208D154
:102E4C00624623431370BFF35F8F306087F31088A3
:102E5C00F8BD100001F094FE2C0100D0F8B5CE4660
:102E6C0047468C4680B5EFF3108872B6214D2C681E
:102E7C00002CFCD0BFF35F8F9A422CD8D4080721CA
:102E8C00055D0619012411408C402C421FD00721EE
:102E9C008946063909E0D408055D06194C460F0031
:102EAC001440A7403C002F4211D001329342F2D281
:102EBC0001204042BFF35F8F00220E4B1A6088F353
:102ECC00108800280FDB0CBC90469946F8BD2C43AB
:102EDC0010003470EEE7BFF35F8F00232B6088F394
:102EEC001088012040426346002BECD0089801F07A
:102EFC0047FEC0462C0100D00021044B044ABFF30E
:102F0C005F8F02C39342FAD17047C046000100D0D4
:102F1C00800100D0044A1078431CDBB2172B00D977
:102F2C00102313707047C0466EA8012000B5054BE6
:102F3C0083B00100009318221F230348FFF78EFF74
:102F4C0003B000BD3486012094E7012001238340A7
:102F5C00002904D0034A1360034A13607047034AE4
:102F6C001360FBE780E200E000E100E080E100E0BC
:102F7C0001228240034B1B681340581E8341D8B278
:102F8C007047C04600E100E0024B10309B688000A7
:102F9C00C058704700ED00E070B50D00EFF31086DF
:102FAC0072B60F4A1368002BFCD0BFF35F8F0D4B2A
:102FBC0010309B6884001B590B4A934203D09D42EE
:102FCC0001D001F0F5FD074B9B681D51BFF35F8FDE
:102FDC00BFF35F8F0022024B1A6086F3108870BD1E
:102FEC00240100D000ED00E0CD010010F0B55746F3
:102FFC004E464546DE46E0B5894683B005001700CF
:10300C00EFF3108A72B65D4A1368002BFCD0BFF345
:10301C005F8F00205A4B18569B4600286CDB5A4693
:10302C004400584E2418A400331998469B79103547
:10303C001370554BAA009B6801929B589C469B1B96
:10304C005F2B28D8012261469143CB79BB4208D82B
:10305C006AE053009B189B00F318DD79BD4251D9EF
:10306C00190006228A56002AF3DA0B1D9B46474E9E
:10307C0043465C46043B1B1B1B05454C5B0D234325
:10308C008B80887141468A714A46424B8E800B6018
:10309C00CF718A601BE0404B9C4542D142463F4B6E
:1030AC00023413803E4B3619043B9E1B3605384BBD
:1030BC00760D1E433B4B56809380FF23D771937143
:1030CC0043464A469A60012342461A439446614657
:1030DC002D4B019A9B689950BFF35F8FBFF35F8FA5
:1030EC000022264B1A608AF3108803B03CBC904631
:1030FC009946A246AB46F0BD01F05AFD5B46002056
:10310C0018568CE70B1D9B468B8804345B051B15EE
:10311C005B4436199E1BE0233605760D1B021E43BD
:10312C00A6E701F045FDB9E745460B001E489B1B81
:10313C005B415843000D194B2B80A31C9C46B44497
:10314C006546174B0434043B5B1B1B05104D5B0D94
:10315C00AC462B43454636196B800B1F9E1B6346B2
:10316C00A87148463605760D1E430A4BAE80EF71AA
:10317C00A8600B60434613439C46A8E7240100D08B
:10318C00D3EF012070A8012000ED00E001BD00008C
:10319C0000E0FFFF01488047CD01001000A1FFFFB8
:1031AC00D0A8012001BDFFFFAAAA0000F0B5DE46A1
:1031BC0057464E464546E0B50C0083B0EFF31089F8
:1031CC0072B6594A1368002BFCD0BFF35F8F574B74
:1031DC009A68030010339F00D559554A9046954282
:1031EC0032D0A54243D0534EAA1B5F2A2CD80122C1
:1031FC00824092465146504A126811400191514604
:10320C004E4A1160BFF35F8FEFF305829346002A9D
:10321C0033D101232A009A4393689C4208D178E069
:10322C004B005B189B00F3189968A1422AD01A0036
:10323C00062151560029F3DA019B002B19D0524676
:10324C003F4B1A603C4B1A60384B9B68DD51BFF307
:10325C005F8FBFF35F8F0022334B1A6089F31088A6
:10326C0003B03CBC90469946A246AB46F0BD150057
:10327C00EAE75246314B1A60E6E79342C9D001F0B7
:10328C0097FCC6E706215956002922DB4A00501844
:10329C00800034188046A0689860E079D8710620C8
:1032AC0020569871A0797F2824D8A488F01A640538
:1032BC00241544440019E0240005400D2402204349
:1032CC00988052181F4B9200B6181A781970B27168
:1032DC00B2E7594600290FD1FF3191711A499180FB
:1032EC0018490A789A71194A9B1B5B415A43120D73
:1032FC000A70A1E71648E3E7164A1749D21A083AAA
:10330C005002400D01439980144952080A43DA8057
:10331C0092E70621515613000029B7DA5A46002AC3
:10332C00EAD14546DCE7C046240100D000ED00E0C0
:10333C00CD01001070A8012000E100E080E100E068
:10334C0080E200E0D3EF012001BDFFFFAAAA00003C
:10335C0001BD0000DAA8012000F0FFFF00F8FFFF1C
:10336C00F0B5EFF3058101240443EFF3108672B638
:10337C002D4A1368002BFCD0BFF35F8F2B4A05003E
:10338C002B4BAD1A6D416B431B0D2A4D8900AF6859
:10339C005BB27F58A7422CD006215156994238D0A7
:1033AC0012215156994236D01E215156994234D091
:1033BC002A215156994220D03621515699422ED06D
:1033CC0042215156994222D04E215156994228D031
:1033DC005A2151560724994210D0174A117813706C
:1033EC008171BFF35F8F00220F4B1A6086F3108838
:1033FC00F0BDAA68114C5450EFE703246100091981
:10340C0089005218FF2191710D499180E5E705243F
:10341C00F4E70024F2E70124F0E70224EEE70424A9
:10342C00ECE70624EAE7C046240100D070A801208E
:10343C00AAAA000000ED00E0D3EF0120CD0100109E
:10344C0001BDFFFF054B064A1360064A136053602B
:10345C009360D36013615361936170478080808067
:10346C0000E400E004E400E070B504000E00150078
:10347C00FFF750FD0100200000F006F8A680E58063
:10348C00BFF35F8F70BDC046024B9C466144890000
:10349C00016070474000003410B50400FFF73AFD9E
:1034AC0001002000FFF7F0FFFF232371BFF35F8FB4
:1034BC0010BDC04610B50400FFF72CFD0100200024
:1034CC00FFF7E2FFFF23A380BFF35F8F10BDC04661
:1034DC0010B504000120FFF729FD034BC3189B0016
:1034EC002360BFF35F8F10BD4000003483680B482E
:1034FC0010B5844661446244090112019A185918A6
:10350C0054684B6801209C4201D802D00020C0B204
:10351C0010BD12680B689A42F9D8F7E7FFFFFF0F4E
:10352C000A4B1968EFF3108072B60A68002AFCD0B7
:10353C00BFF35F8F1B68BFF35F8F00221A6080F3AD
:10354C00108840BF002000217047C04698EE012033
:10355C00F8B5574645464E46DE46E0B599460CABA7
:10356C0019780DAB1B78050090469A460768002920
:10357C0012D1BE7B002E45D074003B68A419033CCD
:10358C001B195A783100BA73002A00D1FA73002241
:10359C009A705A701A7003E00E004C006418033CC9
:1035AC002C4B00229C46AB6861449C464346090167
:1035BC0061440B604B464B600A9B8B600B9BCB6052
:1035CC003B681B199A705A701A707B7B9B46002BB8
:1035DC002CD032005946B8687B6898473A68002866
:1035EC0017D05B4658465B005B441419033BA07034
:1035FC00D118D35C002B00D063705B460E707B73CC
:10360C00B34514D030003CBC90469946A246AB461C
:10361C00F8BD5B465B005B44033BD3189E701119ED
:10362C00125D002A00D05A705B460B707E734246C6
:10363C004B46287D00F0D4FB041E06D05346002BCD
:10364C0003D13100286800F019FE0E9B002BD9D055
:10365C001C70D7E7FFFFFF0FF0B5DE4657464E460E
:10366C0045460023E0B58BB00893664B8200D458D6
:10367C0000239B46099000F029FB626806000F00AE
:10368C00EFF3108572B61368002BFCD0BFF35F8F7D
:10369C0023689C465B7B9946002B68D0A2685A4BEA
:1036AC0090464B441B01984443461A685B681000D3
:1036BC001900801BB941002963DD099800F090FBCB
:1036CC0000230022984600230692079300239A4673
:1036DC006368BFF35F8F5A461A6085F310885346B0
:1036EC00002B08D10028C6D10BB03CBC90469946A3
:1036FC00A246AB46F0BD089B414618024B46184308
:10370C00D047626806000F00EFF3108572B613689D
:10371C00002BFCD0BFF35F8F002F4FDB33003B43FC
:10372C0002D02369002B60D12368DA7B002A07D0F2
:10373C0051008A1819688C4649466244033A517004
:10374C009A7B002A01D14A469A734A46DA734B4651
:10375C00E168013BCA5C0132CA545B462361636871
:10376C00BFF35F8F5A461A6085F3108883E70023F6
:10377C0000229846002306920793002300209A46C5
:10378C00A6E7002901D1002897D10021604600F05E
:10379C00D3FC43461A685B680692079343469B68C2
:1037AC009A464346DB689846E3684B44013B1B78DA
:1037BC0008931B0203432361002089E72369002B34
:1037CC00B2D0069A079B921BBB41002B15DB5946C6
:1037DC0004910121039149460291414601915146C0
:1037EC0020000091FFF7B4FEB7E700F06FFA32004B
:1037FC003B0012184B41002BE9DA0122034B5242D9
:10380C00E5E7C04668EE0120FFFFFF0FFFFFFF7FDB
:10381C0010B5144C6368002B04D00A211248FFF732
:10382C0033FE10BD2300114A1021206800F09EFBCE
:10383C00032000F03FFA032000F044FB03200C4966
:10384C0000F088FAFFF766FB0A4B9C4603232375AE
:10385C00D0231B061B6860446375074B80006060B7
:10386C00DC60DAE7E8A8012098EE0120BD320020E8
:10387C00293400204000003468EE0120F0B5574692
:10388C004546DE464E46E0B585B0019310AB1B783D
:10389C0000270393002380469A46009243465A68B9
:1038AC00EFF3108972B61368002BFCD0BFF35F8F57
:1038BC0043461D68AC7B002C4FD066002B68361934
:1038CC00033E9B195A78AA73002A00D1EA73424628
:1038DC009F705F701F7092684A4B94460099019AD2
:1038EC00E3181B01634419605A600E9A9A600F9A90
:1038FC00DA602B689B199F705F701F706B7B9B4607
:10390C00002B46D022001900A8686B6898472A68DB
:10391C00002831D05B4658465B005B449619033B4C
:10392C00B070D118D35C002B00D073705B460C7058
:10393C006B735C452ED04346DB681B19013B187832
:10394C0043465B68BFF35F8F1F6089F31088534653
:10395C00002B2ED10002204307E05B68BFF35F8F82
:10396C001C6089F310880120404205B03CBC904695
:10397C009946A246AB46F0BD5B465B005B44033BFD
:10398C00D3189C709119925D002A00D05A705B4636
:10399C000B706C734346187D009A019B00F020FA63
:1039AC0082460028C7D043462100186800F066FC08
:1039BC00C1E7039B002B23D00E9B00200F99984747
:1039CC00030004000D000B431AD000290ADA009AF8
:1039DC00019B121BAB4100920193002B0ADB039B52
:1039EC009A465BE700F072F924184D41009401955A
:1039FC00002DF4DA0123044C5B4200930194EEE7B2
:103A0C000020B2E7FFFFFF0FFFFFFF7F70B542689A
:103A1C000400EFF3108572B61368002BFCD0BFF3D3
:103A2C005F8F2068CAB2437B93420AD0FF230B40BE
:103A3C005E00F3180668B4466344033B9B78002B86
:103A4C0013D0E668FF23B4460B406344013B090ADC
:103A5C001E78C9B28E420DD000206368BFF35F8F11
:103A6C0000221A6085F3108870BD22698A42F3D156
:103A7C002361F1E7110000F001FCEEE7F0B5040062
:103A8C000D0006267642F717C64636196F4100B56B
:103A9C0084B08F4214D811D000F018F932003B00DA
:103AAC00121A8B41002B15DC002B3ED02000290074
:103ABC0000F040F904B004BC9046F0BD8642EBD94E
:103ACC000026002700F002F932003B00121A8B414D
:103ADC00002BE9DD002302930193154B3200009378
:103AEC0014483B00FFF7CAFE0028DFDB0023984692
:103AFC00BC46114A114F7B6A9C4504D8B96A8E4268
:103B0C00D4D99C45D2D11168EFF3108072B60B68F2
:103B1C00002BFCD0BFF35F8F1368BFF35F8F414660
:103B2C00196080F3108820BFE5E7002ABED0D1E7EA
:103B3C00F1320020E8A8012098EE01200040054059
:103B4C0070B504000D0000F0C1F80019694100299E
:103B5C0002DBFFF793FF70BD012001494042F8E7FB
:103B6C00FFFFFF7F70B5060000F0B0F8FA220400EA
:103B7C000D00002330000021920001F08FFE00198F
:103B8C006941002902DBFFF779FF70BD0120014973
:103B9C004042F8E7FFFFFF7F70B5EFF305830500A8
:103BAC000C0084B0002B0FD0104B0020596A8C42B3
:103BBC0003D89B6A0130AB4201D304B070BD641AC8
:103BCC00611E8C41E0B2F8E7094E02930193094B58
:103BDC000200009330000B00FFF750FE011EE3DDE6
:103BEC0020BF3000FFF712FFDEE7C0460040054063
:103BFC00E8A80120F1320020F0B5EFF30582D6469B
:103C0C004F4646461000C0B51038EFF3108872B618
:103C1C00214C2368002BFCD0BFF35F8F01231900CC
:103C2C0081401E4D1F006963AA461D4D29601D4D24
:103C3C002E78AC463500C5402F402B4215D053464C
:103C4C00194D5F6A83005D59AF4218D3174A8E43F2
:103C5C009B5862461670BFF35F8F0022226088F378
:103C6C001088002B06D0984704E0BFF35F8F2760C5
:103C7C0088F310881CBC90469946A246F0BD0C4BAC
:103C8C0092009C46624413681360BFF35F8F00235D
:103C9C00236088F31088EDE7280100D00040054030
:103CAC003C700540D7EF01209CEF01207CD7012010
:103CBC00D03F054010B50100024A0348FFF7AAF8AF
:103CCC0010BDC04650860120CAEF0120034B596A33
:103CDC000A00986A596A8A42FAD170470040054036
:103CEC0070B504000D00124A536A1900966A536AA3
:103CFC008B42FAD13000190024184D41AB4211D837
:103D0C000ED02B000A494A6A9A42FCD307D1084AC2
:103D1C0002E0516A994202D1916AA142F9D370BD75
:103D2C00A642EED9012301246442E5175B42E9E780
:103D3C0000400540064A536A9942FCD807D1044B0F
:103D4C0002E05A6A914202D19A6A8242F9D37047D0
:103D5C000040054070B504000D00EFF3108672B6FC
:103D6C001A4A1368002BFCD0BFF35F8F002D1BD0B9
:103D7C002000FFF709F9164981420AD02000FFF70D
:103D8C000BF901212000FFF7E1F80123A340114AB0
:103D9C001360114BA400E550BFF35F8F00220B4B57
:103DAC001A6086F3108870BD0B4BA200D55001220F
:103DBC00A2400A4920000B7893430B700449FFF78B
:103DCC00F5F900212000FFF7C1F8E5E7280100D044
:103DDC00C9390020386005407CD70120D7EF01207D
:103DEC00F0B54F46D6464646C0B50700304C616A22
:103DFC000D00A66A616AA942FAD18B4208D805D097
:103E0C0001201CBC90469946A246F0BDB242F7D99F
:103E1C00EFF3108972B6274801680029FCD0BFF374
:103E2C005F8F01252449BD408C460978204C0E003B
:103E3C002E438846F1B28A46614650460870391DB9
:103E4C001E48890065630A51B9000B50216A002095
:103E5C00294219D0616A0800A66A616A8142FAD1C6
:103E6C008B4219D801D1B24216D8C2451DD0104B85
:103E7C001F201D625D6301230740BB40104A1E38A2
:103E8C001360634642461A70BFF35F8F0022094BE2
:103E9C001A6089F31088B4E70020BFF35F8F00220B
:103EAC00044B1A6089F31088ABE70120ECE7C0469D
:103EBC0000400540280100D0D7EF01209CEF0120E5
:103ECC0080E200E010B5EFF3108472B60A490B687B
:103EDC00002BFCD0BFF35F8F01238340074A0848B7
:103EEC00136202789A430270BFF35F8F00230B605A
:103EFC0084F3108810BDC046280100D00040054056
:103F0C00D7EF012070B505000E001400002924D055
:103F1C00002A24D080686B689847296800280ED046
:103F2C0063001B197200033B9219CB18033A9E7065
:103F3C0088188A5C002A14D1047030000EE07300DB
:103F4C009B196200033B1219CB18033A9C7088181A
:103F5C008A5C002A00D05A700670200070BD0800E0
:103F6C00FCE75A7004703000F8E7C04630B5836047
:103F7C000023CCB243730133047342608373C47364
:103F8C000D000068012C06D9421C0133DBB2137002
:103F9C0003329C42F9D1FF2129404B0059180023D0
:103FAC0040180338437030BDF8B5CE46474606007E
:103FBC000C0080B5002907D04D0003686D18033D37
:103FCC005A195778002F04D120000CBC9046994602
:103FDC00F8BD7900C9190339884643445978894694
:103FEC0000215970517073683A002100806898471D
:103FFC003368002814D042469A18947059195B5DA6
:10400C00002B00D053700F70270049463000FFF78B
:10401C00CBFF390002003000FFF774FF0400D3E738
:10402C00424641465D19AF709A185B5C002B00D07C
:10403C006B701470E9E7C046F0B557464546DE464E
:10404C004E46E0B50D006B0001685B19DF1E0400E5
:10405C00C85D83B00192CA19002850D043001B18C8
:10406C00033BCB185E78B446002E1AD1019E002E6D
:10407C0042D0E67B002E04D073009B19CB18033B77
:10408C005D70A37B002B00D1A573E57300282FD1A5
:10409C000023537003B03CBC90469946A246AB46F5
:1040AC00F0BD72006244033A89184A7890460022A7
:1040BC004A7091465A70010032002000FFF722FF2F
:1040CC0043468246002B07D05B0021684344033BE8
:1040DC00CB185A78002A16D1424651462000FFF7D9
:1040EC0011FF2168019BCA19002BC2D10028CFD027
:1040FC0043001B18033BCB1800219970C8E7019BA8
:10410C00002BB6D1C4E75000801803380918487842
:10411C00834648464870587041462000FFF7F2FE2F
:10412C00594680462000FFF73FFF41460200200021
:10413C00FFF7E8FE8046CFE7F0B54E464546DE4633
:10414C005746E0B5467B040075000068AD19033D89
:10415C0083B00191415D4219002952D04B005B188C
:10416C00033BC3185F78BC46002F1CD1019D002D6A
:10417C0044D0E57B002D04D06B005B19C318033BC6
:10418C005E70A37B002B00D1A673E673002931D19E
:10419C00002330005370617303B03CBC90469946C9
:1041AC00A246AB46F0BD7A006244033A80184278CE
:1041BC0093460022427091465A7020003A00FFF755
:1041CC00A1FE5B468046002B07D05B0021685B4458
:1041DC00033BCB185A78002A17D15A464146200087
:1041EC00FFF790FE019B010020684219002BC0D103
:1041FC000029CDD04B005B18033BC31800209870EE
:10420C00C6E7019B002BB4D1C2E7500080180338DD
:10421C00091848788246484648705870594620001C
:10422C00FFF770FE53468346002B07D05B002168D6
:10423C005344033BCB185A78002A06D159465246B0
:10424C002000FFF75FFE8346C7E750008018033855
:10425C00091848464F784870587051462000FFF7AF
:10426C0051FE390081462000FFF79EFE49460200B0
:10427C002000FFF747FE8246E0E7C04670B5040019
:10428C0000292CD0437B8B422ED005684800401867
:10429C00033828188278002A21D053009B18033B3E
:1042AC00EA5CEE188A4202D11BE0002A08D05300C7
:1042BC009B18033BEB185A788A42F6D142785A7015
:1042CC0000230122837043702000FFF7B5FE617B51
:1042DC0002002000FFF716FE6073012000E00020B2
:1042EC0070BD43783370EBE701221900FFF7A4FE91
:1042FC0060730120F4E7C04670B516000D0019007C
:10430C000400FFF7C1F82900701C01F047FB0023E3
:10431C00E681A5816060A36070BDC04670B503687E
:10432C000400EFF3108572B61A68002AFCD0BFF3B4
:10433C005F8F20896389E289C31A01D5561C9B19AA
:10434C00934208D12368BFF35F8F00221A6085F374
:10435C001088002070BD6368A2899C46504360445D
:10436C0001F05AFB002210002389E18901339BB232
:10437C009942504141420B4023812368BFF35F8F28
:10438C001A6085F3108840BF0120E3E770B5040084
:10439C0008002368EFF3108672B61A68002AFCD066
:1043AC00BFF35F8F658923895B1B02D5E2890132DC
:1043BC009B18002B07D12268BFF35F8F136086F325
:1043CC001088002070BDA28963685543591901F00B
:1043DC0023FB002210006389E18901339BB29942CF
:1043EC00504141420B4063812368BFF35F8F1A60D9
:1043FC0086F3108840BF0120E4E7C046F8B50400FE
:10440C00002709E0E2899A4218D12368BFF35F8F35
:10441C001F6085F3108820BF2368EFF3108572B6F8
:10442C001A68002AFCD0BFF35F8F20896389C31AF6
:10443C00E8D5E689721CD3189E42E6D06368A2893F
:10444C009C465043604401F0E7FA00221000238997
:10445C00E18901339BB29942504141420B40238187
:10446C002368BFF35F8F1A6085F3108840BFF8BDD7
:10447C0070B504000800002108E0002B18D1236857
:10448C00BFF35F8F196085F3108820BF2368EFF3AB
:10449C00108572B61A68002AFCD0BFF35F8F66894C
:1044AC0023899B1BE9D5E2890132D318002BE6D076
:1044BC00A28963685643991901F0AEFA00221000E4
:1044CC006389E18901339BB29942504141420B40CF
:1044DC0063812368BFF35F8F1A6085F3108840BF38
:1044EC0070BDC04670B504000800002108E0002B28
:1044FC0018D12368BFF35F8F196086F3108820BF33
:10450C002368EFF3108672B61A68002AFCD0BFF34A
:10451C005F8F658923895B1BE9D5E2890132D3184A
:10452C00002BE6D0A28963685543591901F074FA3F
:10453C002368BFF35F8F00221A6086F3108840BF98
:10454C0070BDC046F0B54546DE4657464E46E0B512
:10455C0083B001920C9A050088469A4200D974E007
:10456C001A0E93461E023000002359460C9A00F096
:10457C0001FC374B6C009C466419A40064446368CE
:10458C000700834200D260602B1FDBB29946012BDF
:10459C0035D9C02380229B01234312011A602D4B75
:1045AC00AD0059599A46002905D0586900F0A4FB72
:1045BC0001300138FDD1019A236852015340E022A9
:1045CC001A4080235B0123431A604A46012A2FD9E3
:1045DC00802380229B01234312011A6030000023A8
:1045EC003A005946676000F0C5FB5346585101200C
:1045FC0003B03CBC90469946A246AB46F0BD434640
:10460C00012BC6D1C02303229B0123431A60023A1B
:10461C00A3681A42FCD0019A236852015A40E02345
:10462C001A4080235B0123431A600A4AAD0092466C
:10463C0042462168514003220A401A600122434637
:10464C009A40A3681A42FCD0C2E70020D0E7C046CB
:10465C000080004098E7012030B50C2083B000F0BA
:10466C00C1F9FEF7B9FB00280ED0944B944A1A609E
:10467C005A609A60DA601A615A619A61DA611A6258
:10468C00904A5A6203B030BD8F4CA06700F0B2F96B
:10469C0001228E4B1A60636C012BFCD103228C4BD4
:1046AC001A60894A936B012BFCD101330121894A91
:1046BC0089480093043300F033F90523874A0093AB
:1046CC000121874800F02CF9864B5A68FF2A02D842
:1046DC00802252005A608022784C7D4B2169120155
:1046EC00804D1A60002905D0606900F005FB01308F
:1046FC000138FDD1E0217B4B02201A681140802249
:10470C0052012A431160196848400321014011608D
:10471C0004219A681142FCD08022802192012A4304
:10472C0009011160802252005A606F4B23616F4B5C
:10473C005968FF2900D85A6003226C48634B012149
:10474C001A60020093681942FCD0E02513681D40E2
:10475C0080235B0103431D6012684A400321114012
:10476C0019600221614A93681942FCD08023802190
:10477C009B0103430901196080215D4B4900516085
:10478C0063615C4B5A68FF2A00D8596080225A4BEF
:10479C00E1691201574D1A60002905D0606900F0DB
:1047AC00ABFA01300138FDD1E02252490B681A40B6
:1047BC0080235B012B431A60802380229B012B43B7
:1047CC0012011A6080223E4B52004A60E3614B4B4F
:1047DC005968FF2900D85A608022494B216A12017E
:1047EC00464D1A60002905D0606900F085FA013049
:1047FC000138FDD1E02241490B681A4080235B014E
:10480C002B431A60802380229B012B4312011A60D8
:10481C00802380225B004B60294BD2022362394BF0
:10482C005968914200D25A608022374B616A12015A
:10483C00344D1A60002905D0606900F05DFA013032
:10484C000138FDD1E0222F490B681A4080235B010F
:10485C002B431A60802380229B012B4312011A6088
:10486C008023DB024B60174B6362284B5A68FF2A8C
:10487C0002D8802252005A608022254BA169120175
:10488C00224D1A60002905D0606900F035FA01301C
:10489C000138FDD1E0221D490B681A4080235B01D1
:1048AC002B431A60802380229B012B4312011A6038
:1048BC0080235B004B600E4BA361E3E698E701207D
:1048CC00006CDC021BB70000008000403CB00040D4
:1048DC0030B00040002F685900800240008C8647A1
:1048EC0000C0024030800040001BB7003C800040FC
:1048FC00405973075480004054B000406080004021
:10490C0060B000406C8000406CB0004048800040BB
:10491C0048B00040014B8000C058704798E7012018
:10492C00F8B504000C2017001D000E0000F0E4F98F
:10493C004101091A8B01591AC9000918890138005B
:10494C0000F0DAF9069A2B04120313432268002AAA
:10495C0021DB194AA21851424A41802149018C4657
:10496C0052420A40154962440A6015490A601549C9
:10497C0017008D68AF43FBD1C021221D8901114363
:10498C0021222660A0600A602268002AFCDAE3601B
:10499C0008230B60F8BD3F2221680A40B242D8D1EF
:1049AC00A2681205120D8242D3D1EE21E268C9022F
:1049BC000A409A42CDD1EDE70040FDBF00E0004037
:1049CC0000F0004000C00040044B00011B68584040
:1049DC00F0231840024B18607047C0460040064058
:1049EC00005006408023024A9B000343D362704769
:1049FC0000800540AA23064A1B0113602F2305499A
:104A0C00D360054B19605368002BFCDA7047C04625
:104A1C000040024000B0FA00006002402C4B2D4ACE
:104A2C0070B51A602C4A2D4B2D491A6010008B68FA
:104A3C009843FBD12B4C2C4B9C4209D2013B1D1BA8
:104A4C00AD080135AD002D1908CC9847AC42FBD10F
:104A5C00FFF702FE254A214B1A60214A9368DB01BD
:104A6C008033FBD14022224B224C234D9A675A674C
:104A7C001A67DA66AC4208D223682000002B21D0DA
:104A8C000834FEF717FDAC42F6D31C4C1C4DA16844
:104A9C00C022280000F0C0FFA560FEF72DFAFEF73B
:104AAC00D1FCFEF7B5FE174C174B9C4209D2013BCB
:104ABC001D1BAD080135AD002D1908CC9847A5423A
:104ACC00FBD170BD0834FEF7E7FCAC42D4D3DCE775
:104ADC0000E00040BFCDFBFEFE7F3C0000F000403C
:104AEC0000C000403CB301204CB30120FFFFFF018C
:104AFC0000F001401CB301203CB3012000ED00E0AC
:104B0C00000000204CB3012054B3012000BEFDE78F
:104B1C00094A03001068002805D00849C3188B42C5
:104B2C0007D81360704706480449C31810608B42BD
:104B3C00F7D901204042F5E748EA012000000420A3
:104B4C0054F4012010B5FFF7E1FFC04610B50C007E
:104B5C0082B01900002A0AD0064B01920093020081
:104B6C002300054800F032F80120FFF7CFFF034B7C
:104B7C001A00F2E774860120848601201C7A012039
:104B8C000FB400B5084883B001F06CF8049B002BFF
:104B9C0007D005A91800019100F038F8034801F07E
:104BAC0061F80120FFF7B2FFB4860120987A01204A
:104BBC0010B50148FFF7E4FFC486012010B50028AA
:104BCC0000D110BD01F002F8FBE7C0460FB410B5E0
:104BDC000C4984B006AA08CA0C680392002C0BD0AE
:104BEC00009201220848524202A9A047012004B0B9
:104BFC0010BC08BC04B01847180001F033F80020B2
:104C0C00F5E7C0464CEE01208D49002010B5094A4D
:104C1C000300146884B0002C08D0012200910648CF
:104C2C00524203A9A047012004B010BD01F01AF8AC
:104C3C000020F9E74CEE01208D49002001480421A9
:104C4C00014B184710A901203D4A0020142310B530
:104C5C000100188804331B88984710BD162310B523
:104C6C000100188802331B88984710BDF0B5C64662
:104C7C0000B5002916D014230400012598461827E6
:104C8C00890046184346216818883B88984701C418
:104C9C00431E984140420540A642F3D1280004BC73
:104CAC009046F0BD0125F9E7124A936F9B0815D287
:104CBC009066D166002905D0FFE7FFE7FFE7516F4B
:104CCC00106F704704B580210906C21751400028A7
:104CDC0000D0C8430DF036F9002104BDF0B5146EB8
:104CEC00556E576F166FFFF7E3FF146655665767DF
:104CFC001667F0BD000000D0114A936F9B0813D2C9
:104D0C0010665166002905D0FFE7FFE7FFE7516FFA
:104D1C00106F704704B5002801D00020C0430DF07F
:104D2C0011F9002104BDC046F0B5146E556E576FD5
:104D3C00166FFFF7E5FF1466556657671667F0BDEB
:104D4C00000000D094464A4A926F9208624601D203
:104D5C0028E0C046F0B5464E346E756E776F366FF0
:104D6C0000F020F89446424A146655665767166759
:104D7C006246F0BD94463E4A926F9208624601D25A
:104D8C0054E0C046F0B53A4E346E756E776F366FA0
:104D9C0000F04CF89446364A146655665767166709
:104DAC006246F0BD002B24DB11D000293EDA00B5A1
:104DBC00C943404200D1013100F038F8C9434042A8
:104DCC0000D10131DB43524200D1013300BD002A36
:104DDC00EBD1002801D1002905D00020C90FC9074B
:104DEC0001D1C043410800B50DF0ACF800220023FE
:104DFC0000BD00B500290ADBDB43524200D1013370
:104E0C0000F014F8C943404200D1013100BDC94340
:104E1C00404200D10131DB43524200D1013300F05A
:104E2C0005F8DB43524200D1013300BD002923D1E8
:104E3C00002B18D1002A0CD0BC460D4F38667A6670
:104E4C0000210023FFE7FFE7FFE77A6F386F674623
:104E5C007047002801D00748010000B50DF072F82A
:104E6C000022002300BD02000B000020002170472F
:104E7C00000000D0FFFFFFFF002B00D0BFE0130CA1
:104E8C0028D1002AE7D080B4114F39667A66FFE743
:104E9C00FFE730B4040C7B6F396F1B0423433B6674
:104EAC007A66FFE7FFE7FFE7C04684B27B6F3D6F92
:104EBC001B0423433B667A66FFE7FFE7C0460023EB
:104ECC002C042D0C7A6F386F00196941B0BC7047F7
:104EDC00000000D0F0B594460025140E01D112024A
:104EEC000835140F01D112010435940F01D1920031
:104EFC000235D40F01D152000135D40B0134254FAA
:104F0C007C66254C3C660E0C93B2FFE7FFE7FFE78F
:104F1C003C6F6643360C7703BE467343DF0B5B0472
:104F2C00C01AB941130C7343DB18C91ACE08664377
:104F3C00360CB64493B273431F0F1B01C01AB94110
:104F4C00130C73431F0B1B05C01AB941860D8F023E
:104F5C003E436643360C092D24DB520A7243801AF9
:104F6C007703460A6643360C16235B1BDE40DF4094
:104F7C00BF1964466643821B704604350633010034
:104F8C00D940A840C01900D30131A24206D2002357
:104F9C00F0BD0000000000D0FFFFFFFF121B01302E
:104FAC00F3D3F1E709277F1BFE406446A2B272439C
:104FBC00801A00D20139220C7243130C1204821A8B
:104FCC0099410B007046043513370100F940A84095
:104FDC00801900D30131002B02D1A2420AD2F0BDBC
:104FEC00013000D30131121BFAD2013BF8D1A2429D
:104FFC0000D2F0BD013000D30131121BF7E7F0B540
:10500C001C0C00D080E00CB400251C0A04D11B023F
:10501C00160E3343120208351C0B04D11B01160F5C
:10502C003343120104359C0B04D19B00960F334380
:10503C0092000235DC0B02D192185B4101351C0049
:10504C00971864410134464F7C66464C3C660E0C06
:10505C00FFE7FFE7FFE7C0463C6F6643360C77037C
:10506C00BE4697B27743C01B00D20139C01B00D299
:10507C0001399FB27743C91BC91B170C77437E04B8
:10508C00FF0B801BB941CE086643360C0C2D33DB6D
:10509C00B644120B1F053A431B0B97B27743C01B48
:1050AC0000D201399FB27743C91B170C77433E04DA
:1050BC003F0C801BB941860D8F023E436643292766
:1050CC007F1BFE400C3D7746AF40BF1930BCA2B2EF
:1050DC00ABB272437343801A9941220C7243130C86
:1050EC001204801A994102000B000137001BA941E0
:1050FC00F9D2781E0021F0BD0C277F1BFE407746AD
:10510C007F0BAF40FF19E0E700245D1C07D0144F64
:10511C007D663966FFE7FFE7FFE7FFE73C6F95B277
:10512C009EB265436643401BB141150C1E0C654392
:10513C00664336042F0C3E432D04401BB14199426B
:10514C0004D202000B0020000021F0BD01D19042DE
:10515C00F7D3801A994101349942F2D3F6E7000053
:10516C00000000D0FFFFFFFF48404140484018B40A
:10517C001B4B5B68FC46019308BD04DFFB51002010
:10518C0018B4174B1B68FC46019308BD00DF055291
:10519C0000209446134A926F920809D2624618B4C2
:1051AC000F4BDB68FC46019308BD0CDFBD5400209F
:1051BC000C4AF0B5146E556E576F166F6246FFF7BA
:1051CC00EEFF084A1466556657671667F0BD18B4AB
:1051DC00034B9B68FC46019308BD08DF615300201C
:1051EC004CF10120000000D0FFB55040424050402F
:1051FC0059404B40594000E0FFB5154F4C00640D31
:10520C0003D0BC4204D10C0314D80020090D0905AD
:10521C005C00640D03D0BC4204D11C030AD80022EC
:10522C001B0D1B0501264B4009D44B4003D58B426B
:10523C0000D18242FFBD9942FCD19042FFBD0B438D
:10524C00DB1803431343F5D0C9434918FFBD0000D5
:10525C00FF07000000B5FFF7CFFF01D0002000BD15
:10526C00012000BD00B5FFF7C7FF804100BDC0465F
:10527C0000B5FFF7C1FF01D9002000BD012000BD22
:10528C0000B5FFF7B1FF01D9002000BD012000BD22
:10529C0000B5FFF7A9FF804100BD012040054A0081
:1052AC00121804D85A00121801D800207047012097
:1052BC0070470020704700000021002805D170477E
:1052CC00C1174840401AFAD0C90713B5064B1B68E2
:1052DC0098470CBC441CA2401005120B0349091B37
:1052EC0009051943114310BD90EE01201F04000065
:1052FC0010B54C00620D8023D218DB00D21A5B056E
:10530C007E2A10DD9E3A13DACC170903490819439B
:10531C005242D140640001341532202A05DAD040C3
:10532C000843604310BD002010BD0846604310BD0B
:10533C00C80FC018013810BD132370B51D78012D8E
:10534C0015D010DD2748FFF789FC274C010080227F
:10535C00200000F061FB022D06D02448FFF776FCFC
:10536C00234B186070BD204C224AA264F5E72E0036
:10537C001D4C204AA3085B421E401D422FD0330017
:10538C0022602020B1006118801B0A604A608A608C
:10539C00CA600A614A618A61CA610A624A628A62A7
:1053AC00CA620A634A638A63CA630A644A648A6487
:1053BC00CA640A654A658A65CA650A664A668A6667
:1053CC00CA660A674A674008102803D18A67CA6709
:1053DC00A264C2E71E339B00E250A264BDE7002327
:1053EC00CFE7C046534400004CF101204C33000081
:1053FC0090EE0120C951002007B5604601880A0AC9
:10540C000230DF2AFAD1C9B2820804D3028840885C
:10541C000004104300E00068014A5050039007BD9F
:10542C004CF101200FB403BC0CBCF0B50124E40713
:10543C00634000E0F0B50C0DCF0F661E3605891BDE
:10544C00640503D3C943404200D30131640D03D03A
:10545C00661CF60A07D0E41B00207F00791C890724
:10546C008912803C24031D0DDF0F6E1E36059B1B1D
:10547C006D0503D3DB43524200D301336D0D03D0D2
:10548C006E1CF60A07D0ED1B00227F007B1C9B07CD
:10549C009B12803D2D032F1B661B58D4A446202E37
:1054AC0046DA20371400BC401D00BD40F2403341A9
:1054BC002A4380185941CB0F05D0C943C043002261
:1054CC0064425041514162464D0D28D10D0D07D11A
:1054DC0000281FD0241940414941013A0D0DF9D043
:1054EC00640006D3013000D30131002C01D14008F7
:1054FC004000013A0BD4941CE40A04D11205114467
:10550C00DB071944F0BDD907204B194300E0D9073C
:10551C000020F0BD0029DDD1002CDBD1F0BD013223
:10552C00C6074008CD0728434908002EE1D0D9E72B
:10553C003C2E29DA203E40371400BC4000D0012418
:10554C00F24014431A00BB401C43D317ACE7AC46E3
:10555C00202F08DA20360400B4400D00B540F84086
:10556C0039412843A5E73C2F0CDA203F4036040094
:10557C00B44000D00124F84004430800B1400C436F
:10558C00C117EAE710001900002494E70000F07F2F
:10559C00F0B50C0D661E3605891BE60A6405640D14
:1055AC0002D0651CED0A04D0002001210905803CC5
:1055BC002403A4461C0D671E3F05DB1BE70A64058C
:1055CC00640D02D0651CED0A04D0002201231B05DA
:1055DC00803C24037740644497B484B296B27443FD
:1055EC00070C7E43150C6F4380B26843361802D308
:1055FC00012000043F183004350C00197D4184460D
:10560C0088B29AB250430C0C62431F0C7C438EB28E
:10561C007E43921902D301263604A4191604170CE2
:10562C003618674101BC81B29AB25143040C6243F3
:10563C001B0C5C4380B25843121802D301200004A7
:10564C0024181004130C401863412D185E410020DF
:10565C00474106BC88B293B258430C0C6343120CFE
:10566C00544389B251435B1802D3012109046418D5
:10567C0019041A0C091862416D1856410020474153
:10568C0018BCF902720D1143F0026A0D1043ED02C1
:10569C000A0D03D16D1940414941013B124E9B1B30
:1056AC007600B3420ED26D0007D301300026714153
:1056BC006646354301D1400840001B05C918E40774
:1056CC002144F0BD0BDA013306D1013004D1013194
:1056DC004F0D01D04908F2E7E1070020F0BD01367B
:1056EC0031050020EBE70000FF030000F0B51C0DB6
:1056FC00671E3F05DB1BE70A6405640D02D0661CC0
:10570C00F60A04D0002201231B05803C2403D0257B
:10571C002D060026F6432E661E096E66CE0FF61970
:10572C00B44649004F0D02D07E1CF60A03D000206F
:10573C000021403F3F033E1BB600B444013F7F05B0
:10574C00C91B49082E6F013676089C02950D25431E
:10575C007543ED137543AD1301356D10F603761BD0
:10576C000CB4CC02450D2C43A2B2B3B25A43270C55
:10577C007B43350C6F43A4B26C431B1902D3012439
:10578C0024043F191C041D0CA4187D4124196D41DF
:10579C00009A91B2ACB26143170C7C432B0C5F4363
:1057AC0092B25A43A41802D301221204BF18220445
:1057BC00230C52187B41019C6C431B19520ED901CE
:1057CC000A434401A01A81B2B2B2514303145A43A2
:1057DC00360C734387B27743D617D21900277E4114
:1057EC0036049B191704160C7F185E417316ED18BE
:1057FC00F301002680337541A90F06D16400690AB4
:10580C00E8055B0A184309D22FE004229444803344
:10581C007541A90AA8059B0A184326D34041494162
:10582C002404009A019B0D005543641B4343E41A66
:10583C0095B286B27543170C7E43030C5F4392B24C
:10584C005A43B61802D301221204BF183204330C87
:10585C0052197B4152429C41002C02D4002201304F
:10586C0051414008CA071043490802B06246D707A5
:10587C009210084BD218084B9A4203D21205891881
:10588C00C919F0BD0020002A01DC3900F0BD01333C
:10589C001905F5E7FD030000FE07000051434343E3
:1058AC00C9188C46110C83B24B4310B4040C6143E1
:1058BC0092B280B2504362431C041B0C001910BC02
:1058CC0059411304120CC018514161447047000037
:1058DC00132310B512481C78FFF7C0F90100012CF6
:1058EC000AD003DD80220F4800F096F80E48FFF72F
:1058FC00ADF90E4B186010BD0A4C5422200000F07C
:10590C008BF80B4B6365A365E36523666366A3663F
:10591C00E36623676367A367E3672362E361E5E7F5
:10592C00534600004CF201204C33000090EE012055
:10593C000557002007B5604601880A0A0230DF2AA5
:10594C00FAD1C9B2820804D30288408800041043FB
:10595C0000E00068014A5050039007BD4CF2012052
:10596C0070B504000A4E300011F070FA20000CF0F3
:10597C0037FB0500300011F02DFB002D05D0054B39
:10598C002C199C4201D8280070BD0348FFF7F8F889
:10599C001CB3012000000420D086012070B5050046
:1059AC000C000B4E300011F051FA280021000CF0C5
:1059BC00D7FA0500300011F00DFB002D05D0054B7A
:1059CC002C199C4201D8280070BD0348FFF7D8F869
:1059DC001CB3012000000420D086012070B5040007
:1059EC00054D280011F032FA20000CF003FB2800C2
:1059FC0011F0F0FA70BDC0461CB30120014804211F
:105A0C00014B184720A901203D4A0020014B1B687F
:105A1C001847000020A90120014B5B6818470000C3
:105A2C0020A90120030010B508001B68110098473D
:105A3C0010BDC046F8B54746CE4680B5437D07003D
:105A4C000D001600002B37D000240020002A1EDD8C
:105A5C004B1E98461B4B9946002C2BD043461B5D86
:105A6C000D3B5A425341DBB22A5D0A2A13D0013452
:105A7C00A642F1DC864203DD311A3B6828189847B0
:105A8C00AD19013D2B780D3B5A4253413B750CBC73
:105A9C0090469946F8BD002BE9D1A04203DA211AB1
:105AAC003B6828189847484602213B6801349847C0
:105ABC002000DDE73B7DD7E70368110028009847FD
:105ACC00E5E7C04638870120F0B5DE4657464E461E
